{
  "_format": "hh-sol-artifact-1",
  "contractName": "YourContract",
  "sourceName": "contracts/YourContract.sol",
  "abi": [
    {
      "inputs": [],
      "stateMutability": "payable",
      "type": "constructor"
    },
    {
      "anonymous": false,
      "inputs": [
        {
          "indexed": false,
          "internalType": "address",
          "name": "sender",
          "type": "address"
        },
        {
          "indexed": false,
          "internalType": "string",
          "name": "purpose",
          "type": "string"
        }
      ],
      "name": "SetPurpose",
      "type": "event"
    },
    {
      "anonymous": false,
      "inputs": [
        {
          "indexed": false,
          "internalType": "address",
          "name": "sender",
          "type": "address"
        },
        {
          "indexed": false,
          "internalType": "uint8",
          "name": "partyNumber",
          "type": "uint8"
        }
      ],
      "name": "VoteCasted",
      "type": "event"
    },
    {
      "stateMutability": "payable",
      "type": "fallback"
    },
    {
      "inputs": [
        {
          "internalType": "uint256",
          "name": "",
          "type": "uint256"
        }
      ],
      "name": "eventPartyNumbers",
      "outputs": [
        {
          "internalType": "uint256",
          "name": "",
          "type": "uint256"
        }
      ],
      "stateMutability": "view",
      "type": "function"
    },
    {
      "inputs": [],
      "name": "getEventPartyNumbers",
      "outputs": [
        {
          "internalType": "uint256[]",
          "name": "",
          "type": "uint256[]"
        }
      ],
      "stateMutability": "view",
      "type": "function"
    },
    {
      "inputs": [],
      "name": "getVoteCounts",
      "outputs": [
        {
          "internalType": "uint256[4]",
          "name": "",
          "type": "uint256[4]"
        }
      ],
      "stateMutability": "view",
      "type": "function"
    },
    {
      "inputs": [
        {
          "internalType": "uint8",
          "name": "",
          "type": "uint8"
        }
      ],
      "name": "partyVotes",
      "outputs": [
        {
          "internalType": "uint256",
          "name": "",
          "type": "uint256"
        }
      ],
      "stateMutability": "view",
      "type": "function"
    },
    {
      "inputs": [],
      "name": "purpose",
      "outputs": [
        {
          "internalType": "string",
          "name": "",
          "type": "string"
        }
      ],
      "stateMutability": "view",
      "type": "function"
    },
    {
      "inputs": [
        {
          "internalType": "string",
          "name": "newPurpose",
          "type": "string"
        }
      ],
      "name": "setPurpose",
      "outputs": [],
      "stateMutability": "payable",
      "type": "function"
    },
    {
      "inputs": [
        {
          "internalType": "uint8",
          "name": "partyNumber",
          "type": "uint8"
        }
      ],
      "name": "vote",
      "outputs": [],
      "stateMutability": "nonpayable",
      "type": "function"
    },
    {
      "stateMutability": "payable",
      "type": "receive"
    }
  ],
  "bytecode": "0x60806040526040518060400160405280601c81526020017f4275696c64696e6720556e73746f707061626c65204170707321212100000000815250600090805190602001906200005192919062000058565b506200016d565b828054620000669062000108565b90600052602060002090601f0160209004810192826200008a5760008555620000d6565b82601f10620000a557805160ff1916838001178555620000d6565b82800160010185558215620000d6579182015b82811115620000d5578251825591602001919060010190620000b8565b5b509050620000e59190620000e9565b5090565b5b8082111562000104576000816000905550600101620000ea565b5090565b600060028204905060018216806200012157607f821691505b602082108114156200013857620001376200013e565b5b50919050565b7f4e487b7100000000000000000000000000000000000000000000000000000000600052602260045260246000fd5b610d38806200017d6000396000f3fe6080604052600436106100745760003560e01c8063b3f98adc1161004e578063b3f98adc14610110578063eb68757f14610139578063f3c1d18414610155578063ffc97b20146101925761007b565b80632fa0f25a1461007d57806370740aab146100a85780639d70e9d4146100d35761007b565b3661007b57005b005b34801561008957600080fd5b506100926101bd565b60405161009f919061090c565b60405180910390f35b3480156100b457600080fd5b506100bd610215565b6040516100ca919061092e565b60405180910390f35b3480156100df57600080fd5b506100fa60048036038101906100f5919061068a565b6102a3565b6040516101079190610970565b60405180910390f35b34801561011c57600080fd5b506101376004803603810190610132919061068a565b6102bb565b005b610153600480360381019061014e9190610620565b6103a9565b005b34801561016157600080fd5b5061017c60048036038101906101779190610661565b6103fd565b6040516101899190610970565b60405180910390f35b34801561019e57600080fd5b506101a7610421565b6040516101b491906108f1565b60405180910390f35b6060600280548060200260200160405190810160405280929190818152602001828054801561020b57602002820191906000526020600020905b8154815260200190600101908083116101f7575b5050505050905090565b6000805461022290610b37565b80601f016020809104026020016040519081016040528092919081815260200182805461024e90610b37565b801561029b5780601f106102705761010080835404028352916020019161029b565b820191906000526020600020905b81548152906001019060200180831161027e57829003601f168201915b505050505081565b60016020528060005260406000206000915090505481565b60018160ff16101580156102d3575060048160ff1611155b610312576040517f08c379a000000000000000000000000000000000000000000000000000000000815260040161030990610950565b60405180910390fd5b600160008260ff1660ff168152602001908152602001600020600081548092919061033c90610b9a565b9190505550600281908060018154018082558091505060019003906000526020600020016000909160ff169091909150557f76580ac7c171cd3d2029d56fd501d1351f2db92da148447b53227803bf940c02338260405161039e9291906108c8565b60405180910390a150565b80600090805190602001906103bf9291906104c9565b507f6ea5d6383a120235c7728a9a6751672a8ac068e4ed34dcca2ee444182c1812de3360006040516103f2929190610898565b60405180910390a150565b6002818154811061040d57600080fd5b906000526020600020016000915090505481565b61042961054f565b61043161054f565b6000600190505b60048160ff16116104c157600160008260ff1660ff168152602001908152602001600020548260018361046b9190610a78565b60ff16600481106104a5577f4e487b7100000000000000000000000000000000000000000000000000000000600052603260045260246000fd5b60200201818152505080806104b990610be3565b915050610438565b508091505090565b8280546104d590610b37565b90600052602060002090601f0160209004810192826104f7576000855561053e565b82601f1061051057805160ff191683800117855561053e565b8280016001018555821561053e579182015b8281111561053d578251825591602001919060010190610522565b5b50905061054b9190610571565b5090565b6040518060800160405280600490602082028036833780820191505090505090565b5b8082111561058a576000816000905550600101610572565b5090565b60006105a161059c846109b0565b61098b565b9050828152602081018484840111156105b957600080fd5b6105c4848285610af5565b509392505050565b600082601f8301126105dd57600080fd5b81356105ed84826020860161058e565b91505092915050565b60008135905061060581610cd4565b92915050565b60008135905061061a81610ceb565b92915050565b60006020828403121561063257600080fd5b600082013567ffffffffffffffff81111561064c57600080fd5b610658848285016105cc565b91505092915050565b60006020828403121561067357600080fd5b6000610681848285016105f6565b91505092915050565b60006020828403121561069c57600080fd5b60006106aa8482850161060b565b91505092915050565b60006106bf838361086b565b60208301905092915050565b6106d481610aac565b82525050565b6106e381610a10565b6106ed8184610a4b565b92506106f8826109e1565b8060005b8381101561072957815161071087826106b3565b965061071b83610a31565b9250506001810190506106fc565b505050505050565b600061073c82610a1b565b6107468185610a56565b9350610751836109eb565b8060005b8381101561078257815161076988826106b3565b975061077483610a3e565b925050600181019050610755565b5085935050505092915050565b600061079a82610a26565b6107a48185610a67565b93506107b4818560208601610b04565b6107bd81610c9a565b840191505092915050565b600081546107d581610b37565b6107df8186610a67565b945060018216600081146107fa576001811461080c5761083f565b60ff198316865260208601935061083f565b610815856109fb565b60005b8381101561083757815481890152600182019150602081019050610818565b808801955050505b50505092915050565b6000610855601483610a67565b915061086082610cab565b602082019050919050565b61087481610ade565b82525050565b61088381610ade565b82525050565b61089281610ae8565b82525050565b60006040820190506108ad60008301856106cb565b81810360208301526108bf81846107c8565b90509392505050565b60006040820190506108dd60008301856106cb565b6108ea6020830184610889565b9392505050565b600060808201905061090660008301846106da565b92915050565b600060208201905081810360008301526109268184610731565b905092915050565b60006020820190508181036000830152610948818461078f565b905092915050565b6000602082019050818103600083015261096981610848565b9050919050565b6000602082019050610985600083018461087a565b92915050565b60006109956109a6565b90506109a18282610b69565b919050565b6000604051905090565b600067ffffffffffffffff8211156109cb576109ca610c6b565b5b6109d482610c9a565b9050602081019050919050565b6000819050919050565b6000819050602082019050919050565b60008190508160005260206000209050919050565b600060049050919050565b600081519050919050565b600081519050919050565b6000602082019050919050565b6000602082019050919050565b600081905092915050565b600082825260208201905092915050565b600082825260208201905092915050565b6000610a8382610ae8565b9150610a8e83610ae8565b925082821015610aa157610aa0610c0d565b5b828203905092915050565b6000610ab782610abe565b9050919050565b600073ffffffffffffffffffffffffffffffffffffffff82169050919050565b6000819050919050565b600060ff82169050919050565b82818337600083830152505050565b60005b83811015610b22578082015181840152602081019050610b07565b83811115610b31576000848401525b50505050565b60006002820490506001821680610b4f57607f821691505b60208210811415610b6357610b62610c3c565b5b50919050565b610b7282610c9a565b810181811067ffffffffffffffff82111715610b9157610b90610c6b565b5b80604052505050565b6000610ba582610ade565b91507fffffffffffffffffffffffffffffffffffffffffffffffffffffffffffffffff821415610bd857610bd7610c0d565b5b600182019050919050565b6000610bee82610ae8565b915060ff821415610c0257610c01610c0d565b5b600182019050919050565b7f4e487b7100000000000000000000000000000000000000000000000000000000600052601160045260246000fd5b7f4e487b7100000000000000000000000000000000000000000000000000000000600052602260045260246000fd5b7f4e487b7100000000000000000000000000000000000000000000000000000000600052604160045260246000fd5b6000601f19601f8301169050919050565b7f496e76616c6964207061727479206e756d626572000000000000000000000000600082015250565b610cdd81610ade565b8114610ce857600080fd5b50565b610cf481610ae8565b8114610cff57600080fd5b5056fea2646970667358221220e454d7374f98d0fdb13e6edf9e764815a5d2e13a90f7fd74a6714e8c42f9528464736f6c63430008040033",
  "linkReferences": {},
  "deployedLinkReferences": {}
}