{
  "_format": "hh-sol-artifact-1",
  "contractName": "Voting",
  "sourceName": "contracts/Voting.sol",
  "abi": [
    {
      "inputs": [],
      "stateMutability": "nonpayable",
      "type": "constructor"
    },
    {
      "anonymous": false,
      "inputs": [
        {
          "indexed": true,
          "internalType": "uint256",
          "name": "candidateId",
          "type": "uint256"
        }
      ],
      "name": "Voted",
      "type": "event"
    },
    {
      "inputs": [
        {
          "internalType": "uint256",
          "name": "",
          "type": "uint256"
        }
      ],
      "name": "candidates",
      "outputs": [
        {
          "internalType": "uint256",
          "name": "id",
          "type": "uint256"
        },
        {
          "internalType": "string",
          "name": "name",
          "type": "string"
        },
        {
          "internalType": "uint256",
          "name": "voteCount",
          "type": "uint256"
        }
      ],
      "stateMutability": "view",
      "type": "function"
    },
    {
      "inputs": [],
      "name": "candidatesCount",
      "outputs": [
        {
          "internalType": "uint256",
          "name": "",
          "type": "uint256"
        }
      ],
      "stateMutability": "view",
      "type": "function"
    },
    {
      "inputs": [
        {
          "internalType": "uint256",
          "name": "_candidateId",
          "type": "uint256"
        }
      ],
      "name": "getCandidateVoteCount",
      "outputs": [
        {
          "internalType": "uint256",
          "name": "",
          "type": "uint256"
        }
      ],
      "stateMutability": "view",
      "type": "function"
    },
    {
      "inputs": [
        {
          "internalType": "uint256",
          "name": "_candidateId",
          "type": "uint256"
        }
      ],
      "name": "vote",
      "outputs": [],
      "stateMutability": "nonpayable",
      "type": "function"
    },
    {
      "inputs": [
        {
          "internalType": "address",
          "name": "",
          "type": "address"
        }
      ],
      "name": "voters",
      "outputs": [
        {
          "internalType": "bool",
          "name": "",
          "type": "bool"
        }
      ],
      "stateMutability": "view",
      "type": "function"
    }
  ],
  "bytecode": "0x60806040523480156200001157600080fd5b50620000586040518060400160405280600b81526020017f43616e6469646174652031000000000000000000000000000000000000000000815250620000a460201b60201c565b6200009e6040518060400160405280600b81526020017f43616e6469646174652032000000000000000000000000000000000000000000815250620000a460201b60201c565b620002c5565b60026000815480929190620000b99062000219565b919050555060405180606001604052806002548152602001828152602001600081525060008060025481526020019081526020016000206000820151816000015560208201518160010190805190602001906200011892919062000129565b506040820151816002015590505050565b8280546200013790620001e3565b90600052602060002090601f0160209004810192826200015b5760008555620001a7565b82601f106200017657805160ff1916838001178555620001a7565b82800160010185558215620001a7579182015b82811115620001a657825182559160200191906001019062000189565b5b509050620001b69190620001ba565b5090565b5b80821115620001d5576000816000905550600101620001bb565b5090565b6000819050919050565b60006002820490506001821680620001fc57607f821691505b6020821081141562000213576200021262000296565b5b50919050565b60006200022682620001d9565b91507fffffffffffffffffffffffffffffffffffffffffffffffffffffffffffffffff8214156200025c576200025b62000267565b5b600182019050919050565b7f4e487b7100000000000000000000000000000000000000000000000000000000600052601160045260246000fd5b7f4e487b7100000000000000000000000000000000000000000000000000000000600052602260045260246000fd5b61080380620002d56000396000f3fe608060405234801561001057600080fd5b50600436106100575760003560e01c80630121b93f1461005c5780632d35a8a2146100785780633477ee2e14610096578063a3ec138d146100c8578063b315c597146100f8575b600080fd5b61007660048036038101906100719190610452565b610128565b005b6100806102b8565b60405161008d9190610573565b60405180910390f35b6100b060048036038101906100ab9190610452565b6102be565b6040516100bf9392919061058e565b60405180910390f35b6100e260048036038101906100dd9190610429565b610370565b6040516100ef9190610518565b60405180910390f35b610112600480360381019061010d9190610452565b610390565b60405161011f9190610573565b60405180910390f35b600160003373ffffffffffffffffffffffffffffffffffffffff1673ffffffffffffffffffffffffffffffffffffffff16815260200190815260200160002060009054906101000a900460ff16156101b5576040517f08c379a00000000000000000000000000000000000000000000000000000000081526004016101ac90610533565b60405180910390fd5b6000811180156101c757506002548111155b610206576040517f08c379a00000000000000000000000000000000000000000000000000000000081526004016101fd90610553565b60405180910390fd5b600080828152602001908152602001600020600201600081548092919061022c90610695565b919050555060018060003373ffffffffffffffffffffffffffffffffffffffff1673ffffffffffffffffffffffffffffffffffffffff16815260200190815260200160002060006101000a81548160ff021916908315150217905550807f7f511e347bf51eed3be100b3194247d5207f05f3b33de7d31e3e8ee73199a04960405160405180910390a250565b60025481565b60006020528060005260406000206000915090508060000154908060010180546102e790610663565b80601f016020809104026020016040519081016040528092919081815260200182805461031390610663565b80156103605780601f1061033557610100808354040283529160200191610360565b820191906000526020600020905b81548152906001019060200180831161034357829003601f168201915b5050505050908060020154905083565b60016020528060005260406000206000915054906101000a900460ff1681565b600080821180156103a357506002548211155b6103e2576040517f08c379a00000000000000000000000000000000000000000000000000000000081526004016103d990610553565b60405180910390fd5b600080838152602001908152602001600020600201549050919050565b60008135905061040e8161079f565b92915050565b600081359050610423816107b6565b92915050565b60006020828403121561043b57600080fd5b6000610449848285016103ff565b91505092915050565b60006020828403121561046457600080fd5b600061047284828501610414565b91505092915050565b610484816105fa565b82525050565b6000610495826105cc565b61049f81856105d7565b93506104af818560208601610630565b6104b88161073c565b840191505092915050565b60006104d06017836105d7565b91506104db8261074d565b602082019050919050565b60006104f36015836105d7565b91506104fe82610776565b602082019050919050565b61051281610626565b82525050565b600060208201905061052d600083018461047b565b92915050565b6000602082019050818103600083015261054c816104c3565b9050919050565b6000602082019050818103600083015261056c816104e6565b9050919050565b60006020820190506105886000830184610509565b92915050565b60006060820190506105a36000830186610509565b81810360208301526105b5818561048a565b90506105c46040830184610509565b949350505050565b600081519050919050565b600082825260208201905092915050565b60006105f382610606565b9050919050565b60008115159050919050565b600073ffffffffffffffffffffffffffffffffffffffff82169050919050565b6000819050919050565b60005b8381101561064e578082015181840152602081019050610633565b8381111561065d576000848401525b50505050565b6000600282049050600182168061067b57607f821691505b6020821081141561068f5761068e61070d565b5b50919050565b60006106a082610626565b91507fffffffffffffffffffffffffffffffffffffffffffffffffffffffffffffffff8214156106d3576106d26106de565b5b600182019050919050565b7f4e487b7100000000000000000000000000000000000000000000000000000000600052601160045260246000fd5b7f4e487b7100000000000000000000000000000000000000000000000000000000600052602260045260246000fd5b6000601f19601f8301169050919050565b7f596f75206861766520616c726561647920766f7465642e000000000000000000600082015250565b7f496e76616c69642063616e6469646174652049442e0000000000000000000000600082015250565b6107a8816105e8565b81146107b357600080fd5b50565b6107bf81610626565b81146107ca57600080fd5b5056fea2646970667358221220fa4edd154226dce79413159b30a773c9e1a140769c2f3b6456a2038ec1109c2564736f6c63430008040033",
  "linkReferences": {},
  "deployedLinkReferences": {}
}